:100000000C94CD010C94F5010C94F5010C94371669
:100010000C9437160C9437160C94F5010C94F501DA
:100020000C94F5010C94F5010C94F5010C94F50178
:100030000C94F5010C94F5010C94F5010C94F50168
:100040000C94D0220C94F5010C9466250C94982500
:100050000C94F5010C94F5010C94F5010C94F50148
:100060000C9490180C94F5017C3C3E5E2B3D3F2F88
:100070005B5D3B2C2A225C00005EBCE2613FDD83BD
:10008000C29C7E20A3FD1F419DC3217FFCA2401E78
:100090005F01E3BD3E6082DC237D9FC1421CFEA068
:1000A000E1BF5D0380DE3C62BEE0025CDF81633D58
:1000B0007C22C09E1D43A1FF4618FAA427799BC548
:1000C00084DA3866E5BB5907DB856739BAE4065838
:1000D0001947A5FB7826C49A653BD987045AB8E628
:1000E000A7F91B45C6987A24F8A6441A99C7257B18
:1000F0003A6486D85B05E7B98CD2306EEDB3510F08
:100100004E10F2AC2F7193CD114FADF3702ECC92F7
:10011000D38D6F31B2EC0E50AFF1134DCE90722CE7
:100120006D33D18F0C52B0EE326C8ED0530DEFB1D7
:10013000F0AE4C1291CF2D73CA947628ABF51749C7
:100140000856B4EA6937D58B5709EBB536688AD4B7
:1001500095CB2977F4AA4816E9B7550B88D6346AA7
:100160002B7597C94A14F6A8742AC896154BA9F797
:10017000B6E80A54D7896B35446F203D200057728A
:1001800069746520536420636172640064617465FE
:100190002C70482C74656D702843292C444F286DB1
:1001A000672F6C292C656328732F6D292C6F727053
:1001B000286D7629006361726420696E69746961D3
:1001C0006C697A65642E0043617264206661696CB3
:1001D00065642C206F72206E6F7420707265736579
:1001E0006E7400496E697469616C697A696E672022
:1001F000534420636172642E2E2E0000000008001C
:1002000002010000030407000000000000000001DC
:10021000020408102040800102040810200102049A
:10022000081020040404040404040402020202026C
:100230000203030303030300000000230026002938
:100240000000000000250028002B00000000002412
:100250000027002A004E414E494E495459494E4606
:10026000CDCCCC3D0AD7233C17B7D13877CC2B3235
:100270009595E6241FB14F0A000020410000C842B6
:1002800000401C4620BCBE4CCA1B0E5AAEC59D7415
:1002900000407A10F35A00A0724E18090010A5D43D
:1002A000E80000E87648170000E40B54020000CA9A
:1002B0009A3B000000E1F5050000809698000000E0
:1002C00040420F000000A08601000000102700003F
:1002D0000000E803000000006400000000000A00C5
:1002E000000000000100000000002C76D888DC67C8
:1002F0004F0823DFC1DFAE59E1B1B796E5E3E45320
:10030000C63AE651997696E8E6C28426EB898C9B3C
:1003100062ED407C6FFCEFBC9C9F40F2BAA56FA5DC
:10032000F490055A2AF75C936B6CF9676DC11BFC5E
:10033000E0E40D47FEF520E6B500D0ED902E030079
:10034000943577050080841E080000204E0A0000C6
:1003500000C80C333333330F986E12831141EF8D85
:100360002114893BE65516CFFEE6DB18D1844B38C5
:100370001BF77C1D901DA4BBE424203284725E22F6
:100380008100C9F124ECA1E53D2724021A055F088C
:10039000AE176F22C8253202752211241FBECFEF7F
:1003A000D8E0DEBFCDBF11E0A0E0B1E0EAEEF6E6B6
:1003B00002C005900D92A639B107D9F726E0A6E94B
:1003C000B1E001C01D92AE33B207E1F713E0C6E918
:1003D000D3E004C02297FE010E94B02CCA38D10796
:1003E000C9F70E940C260C9468330C94000086E92F
:1003F00091E00E94AC1F8AEB91E00E94681E8EEC97
:1004000091E00C948D1D26E040E855E260E070E03C
:100410008AE995E00E9404258EEC91E00E948E1DF1
:100420008AEB91E00E947E1E86E991E00C94AD1F5C
:100430008EEC91E00E94F81D8AEB91E00E94991EDB
:1004400086E991E00C9460208EEC91E00E947D1D85
:100450008AEB91E00E94211E6AEB71E086E991E04F
:100460000C94921F0C94F701CF93DF931F92CDB79A
:10047000DEB76983DC01ED91FC910280F381E02D10
:1004800041E050E0BE016F5F7F4F09950F90DF9113
:10049000CF910895CF93DF93EC01898D9A8D0097CA
:1004A00059F0FC01138212820E94E00DE98DFA8D51
:1004B00022813381232B31F081E090E09B838A837A
:1004C00080E090E0DF91CF910895FC01818D928DC5
:1004D000009711F00C94800B0895CF93DF931F9237
:1004E000CDB7DEB741E050E0BE016F5F7F4F0E94A5
:1004F0009109019719F4898190E002C08FEF9FEF75
:100500000F90DF91CF910895FC01818D928D00971E
:1005100011F00C946D028FEF9FEF08950F931F93CE
:10052000CF93DF938C01FC01818D928D0097B9F000
:100530000E946D02EC018F3FFFEF9F0799F0F801D9
:10054000818D928DFC01428553856485758541506E
:100550005109610971090E94E40ACE0105C080E0D9
:1005600090E002C08FEF9FEFDF91CF911F910F912D
:100570000895CF92DF92EF92FF920F931F93CF9344
:10058000DF93EC017B016A011B821A8208EE13E003
:1005900020E030E00C831D832E833F838FE091E0C9
:1005A000998388838DE190E00E94E42C9A8F898F53
:1005B000009779F02DE1F701DC0101900D922A9569
:1005C000E1F74CE050E0B601CE010C960E94192FE5
:1005D000188EDF91CF911F910F91FF90EF90DF90D8
:1005E000CF900895FC011382128248EE53E060E040
:1005F00070E044835583668377838FE091E0918335
:100600008083128E118E14860895DC015996ED9127
:10061000FC915A97309729F062857385848595857A
:1006200008956FEF7FEFCB010895DC015996ED91AE
:10063000FC915A97309729F0638974898589968946
:10064000089560E070E0CB010895CF92DF92EF92C1
:10065000FF92CF93DF93EC01898D9A8D892BD9F08E
:10066000CE010E9415036B017C01CE010E9405039F
:10067000A7019601261B370B480B590BDA01C9015C
:10068000811530E89307A105B10538F08FEF9FE79A
:10069000A0E0B0E002C080E090E0DF91CF91FF9059
:1006A000EF90DF90CF900895CF93DF93EC01898D89
:1006B0009A8D009741F00E94C70B898D9A8D0E94F8
:1006C0007C2D1A8E198EDF91CF910895DC015996F9
:1006D000ED91FC915A97309721F081E0958191112D
:1006E00001C080E008950F931F93CF93DF93EC0137
:1006F000462F61E00E945706811102C080E01DC0B4
:100700008E01045F1F4F41E0BE01C8010E94271304
:10071000882359F0B801CE018A960E94410991E0E0
:10072000811101C090E0892F08C040E0BE01C801DE
:100730000E942713882311F3EDCFDF91CF911F91F2
:100740000F910895FC01DB0112968D919C911397F6
:100750009383828381E291E09183808314968C91CC
:100760001497848315968C911597858316964D91D1
:100770005D916D917C91199746835783608771874E
:100780001A964D915D916D917C911D97428753878B
:10079000648775871E964D915D916D917C915197FF
:1007A00046875787608B718B52968C915297828BBC
:1007B00053964D915D916D917C915697438B548BDF
:1007C000658B768B57964D915D916D917C915A9783
:1007D000478B508F618F728F5B968D919C915C9748
:1007E000948F838F08954F925F926F927F928F9232
:1007F0009F92AF92BF92CF92DF92EF92FF920F93B0
:100800001F93CF93DF93CDB7DEB7C754D1090FB68F
:10081000F894DEBF0FBECDBF6C014A013901665DA1
:100820007F4F5E018EE1A80EB11CC5010E94A2039C
:100830001C821B8281E291E09A8389831E8284015B
:10084000FE0131967F015A2C4B2C6FE270E0C801FB
:100850000E94072F0097E9F1F80120812F3219F447
:100860000F5F1F4FF2CF801B8D3008F08CE0A82E59
:10087000B12CA501B801CE01CB960E94192FEBE354
:10088000F0E0EC0FFD1FEA0DFB1D1082C7010E9476
:10089000C70B21E0AE01455C5F4F652D742DC7018C
:1008A0000E94FB0C811109C0F6011382128281E2C1
:1008B00091E091838083158216C00A0D1B1D852D42
:1008C000942D0E94C70BC2015E2C4F2CE92EF82EEE
:1008D000BCCF08191909F30111830083652D742D0C
:1008E000C6010E94A203C601C95BDF4F0FB6F89490
:1008F000DEBF0FBECDBFDF91CF911F910F91FF9053
:10090000EF90DF90CF90BF90AF909F908F907F90AF
:100910006F905F904F9008959F92AF92BF92CF9249
:10092000DF92EF92FF920F931F93CF93DF93CDB798
:10093000DEB7C955D1090FB6F894DEBF0FBECDBFE3
:100940007C016B015A01922E9E01285A3F4FCE0125
:10095000CB960E94F3036A960EAD1FAD6A970A0DFF
:100960001B1DF801808181110AC0BE01655C7F4FAB
:10097000CE0101960E94A2034BE151E041C019A2B1
:1009800018A281E291E09F8F8E8F1BA221968FADDE
:100990002197811104C0C7010E94F20237C0825022
:1009A000823060F4B601665D7F4F292DA801CE012B
:1009B0004E960E94FB0C811110C0EDCF292DA8018D
:1009C000BE01655C7F4FCE014E960E94FB0C8823D2
:1009D00011F3CE01CB960E94C70B892D867041F092
:1009E00049A95AA96BA97CA9CE014E960E94E40A96
:1009F000BE01625E7F4FCE0101960E94A203A80154
:100A0000BE016F5F7F4FC7010E94B902C701C75A7D
:100A1000DF4F0FB6F894DEBF0FBECDBFDF91CF9191
:100A20001F910F91FF90EF90DF90CF90BF90AF900C
:100A30009F9008951092E6011092E7011092EA014A
:100A40001092EC0182E090E0A0E0B0E08093ED0134
:100A50009093EE01A093EF01B093F0011092040285
:100A600010920E0210920D0281E291E090930C021E
:100A700080930B021092100208959FB7F894209172
:100A80007C0480917A04213019F48DBB9FBF0895B6
:100A90008FBF089520917C04222399F03FB7F894EA
:100AA00020917C04213059F42DB320937A044DB366
:100AB00020917B04209524232DBB3FBF02C030939F
:100AC0007A048CBD9DBD08958EBD00000DB407FE57
:100AD000FDCF8EB508958FEF0C94640561E0FC01A5
:100AE00084810E94EB2380912A02882339F010929E
:100AF0002A0280917C0481110C943D050895CF93C6
:100B0000DF93EC0180912A02811109C081E080937A
:100B10002A0280912B0290912C020E944A0560E0EB
:100B20008C81DF91CF910C94EB23CF93DF93EC0179
:100B30008E81882389F08F8198859C012F5F3F4F9C
:100B400038872F838230924018F40E946B05F3CFD0
:100B5000CE010E946E051E82DF91CF91089567300D
:100B600028F026E1FC01258380E00895623081F0C1
:100B700030F4662359F06130B1F480E515C064307B
:100B800059F040F0653079F482E50EC080E505C08B
:100B900081E503C081E508C082E580932B0281E0F6
:100BA00080932C02089583E580932B0210922C02EF
:100BB00081E008950F931F93CF93DF93EB010E9481
:100BC0001A238B010E946B058F3F49F00E941A2364
:100BD000601B710B6C177D07A8F380E001C081E0FA
:100BE000DF91CF911F910F910895CF92DF92FF92E5
:100BF0000F931F93CF93DF9300D000D0CDB7DEB714
:100C00006C01F62E29833A834B835C830E94950501
:100C1000C6010E947F056CE271E0C6010E94DA0500
:100C20008F2D80640E94640508E110E05C814B8197
:100C30003A812981DA01C901002E04C0B695A79531
:100C4000979587950A94D2F729833A834B835C83DF
:100C50000E9464050850110929813A814B815C8109
:100C6000083F8FEF180731F7FF2029F0E8E0FE1664
:100C700021F08FEF03C085E901C087E80E94640579
:100C800010E00E946B05F601828787FF04C01F3FBA
:100C900011F01F5FF6CF0F900F900F900F90DF9124
:100CA000CF911F910F91FF90DF90CF900895BF9249
:100CB000CF92DF92EF92FF920F931F93CF93DF9328
:100CC000EC01B62E1B8619861E821D824C830E9463
:100CD0001A238B0161E08C810E94B22361E08C8138
:100CE0000E94EB230E94B11682E580932B021092A2
:100CF0002C0280912B0290912C020E944A052AE03E
:100D0000F22E8FEF0E946405FA94D9F780917C044B
:100D100081110E943D05CE010E947F0520E030E058
:100D2000A90160E0CE010E94F505F82E8A8781E0D6
:100D3000F81649F00E941A23601B710B613D774041
:100D400068F381E04BC02AEA31E040E050E068E01F
:100D5000CE010E94F50582FF02C0FB860DC094E023
:100D6000F92E0E946B058A87FA94D9F78A3A11F016
:100D700082E034C082E08B878B85823031F4C12CD5
:100D8000D12CE12C80E4F82E03C0C12CD12C7601AB
:100D900020E030E0A90167E3CE010E94F505A7013C
:100DA000960169E2CE010E94F5058A87882349F001
:100DB0000E941A23601B710B613D774048F388E065
:100DC0000DC08B85823031F520E030E0A9016AE367
:100DD000CE010E94F505882381F086E08D83CE0147
:100DE0000E946E0580E0DF91CF911F910F91FF90DF
:100DF000EF90DF90CF90BF9008950E946B05807CAC
:100E0000803C11F483E08B870E946B050E946B0588
:100E10000E946B05CE010E946E056B2DCE01DF9105
:100E2000CF911F910F91FF90EF90DF90CF90BF90E7
:100E30000C94AF050F931F93CF93DF93EC010E94A7
:100E40001A238B010E946B058A878F3F49F40E9409
:100E50001A23601B710B6D327140A0F38FE003C049
:100E60008E3F39F08DE08D83CE010E946E0580E0CB
:100E700001C081E0DF91CF911F910F910895CF9232
:100E8000DF92EF92FF920F931F93CF93DF93EC01CA
:100E900069010115110509F462C0C801820F931F91
:100EA0008130924008F05DC08E81882371F0888186
:100EB0009981AA81BB81481759076A077B0729F4E2
:100EC0008F819885C816D90610F5488359836A839F
:100ED0007B838B85833039F039E0440F551F661FC3
:100EE000771F3A95D1F79A01AB0161E1CE010E94DB
:100EF000F505882319F083E08D8333C0CE010E946D
:100F00001A07882371F118861F8281E08E838F81F2
:100F100098858C159D0540F40E946B058F819885FE
:100F2000019698878F83F3CF6701E00EF11ECE14F0
:100F3000DF0431F00E946B05F60181936F01F7CF5A
:100F40008F819885800F911F98878F832985222311
:100F500019F08115924018F0CE010E94950581E0AC
:100F600004C0CE010E946E0580E0DF91CF911F91F9
:100F70000F91FF90EF90DF90CF900895EF92FF9246
:100F80000F931F93790100E012E020E030E00E940F
:100F90003F071F910F91FF90EF900895CF92DF923E
:100FA000EF92FF920F931F93CF93DF9300D0CDB7B3
:100FB000DEB78C01862F49835A830E9464054981DC
:100FC000C42E5A81D52EE12CF12CF60181916F01AE
:100FD0000E946405FFEFEF1AFF0AE11482E0F806B1
:100FE000A1F78FEF0E9464058FEF0E9464050E94B5
:100FF0006B05F80182878F71853039F081E1858337
:10100000C8010E946E0580E001C081E00F900F9042
:10101000DF91CF911F910F91FF90EF90DF90CF90D4
:1010200008950F931F93CF93DF93EC01890141152E
:1010300051056105710511F482E132C08B85833061
:1010400039F089E0440F551F661F771F8A95D1F745
:101050009A01AB0168E1CE010E94F505882311F0E9
:1010600084E01EC0A8016EEFCE010E94CE07882347
:10107000C1F068E572E0CE010E94DA05811102C07C
:1010800085E10EC020E030E0A9016DE0CE010E94B4
:10109000F505811104C00E946B05882339F084E1B5
:1010A0008D83CE010E946E0580E004C0CE010E94B7
:1010B0006E0581E0DF91CF911F910F91089580E53A
:1010C00080932B0210922C020895CF93DF93EC01B2
:1010D0009C012A5F3F4F41E050E060E070E08B8D63
:1010E0009C8D0E94BC118823A1F04F89588D698D79
:1010F0007A8D452B462B472B71F44E815F81688595
:1011000079854F8B588F698F7A8F8C8180688C831B
:1011100002C080E001C081E0DF91CF910895CF92BD
:10112000DF92EF92FF921F93CF93DF93EC010E9427
:101130006508811102C080E04BC0EB8DFC8DCE8034
:10114000DF80E884F98482E0C81AD108E108F10858
:10115000058404C0CC0CDD1CEE1CFF1C0A94D2F7E5
:101160004685578560897189C40ED51EE61EF71E17
:10117000148181E0C81AD108E108F108112361F057
:10118000C701B601610F711D811D911D0E940610DE
:10119000882389F21150F2CFEB8DFC8DC12C82E0B7
:1011A000D82EE12CF12C058404C0CC0CDD1CEE1CE7
:1011B000FF1C0A94D2F74B895C896D897E894C0D9E
:1011C0005D1D6E1D7F1D4B8B5C8B6D8B7E8B81E05F
:1011D000DF91CF911F91FF90EF90DF90CF90089516
:1011E000CF93DF93EC01462F6E857F85888999899F
:1011F0000E94CB0F882341F08A8920E2829FC001A0
:1012000011248A5C9D4F02C080E090E0DF91CF9175
:101210000895282FFB018BE030E231938150E9F7EC
:10122000A22FB92F20E037E09D91992319F19E322A
:1012300019F0E8E6F0E008C03A3011F128E03AE0B1
:10124000F3CF31964917E1F044914111FACF3217AB
:10125000B8F04FED490F4E3598F441E0420FFB01D5
:10126000E20FF11D2FE9290F2A3108F490529083E3
:10127000242FDACF81E0FB019081903209F480E0E5
:1012800008950F931F93CF93DF93EC018B018D8112
:10129000882311F080E040C0FB0187898031B1F4E0
:1012A00082E08D831F8A188E198E1A8E408D518D83
:1012B00060E070E095E0440F551F661F771F9A9518
:1012C000D1F74B8B5C8B6D8B7E8B15C0803211F709
:1012D00083E08D83FB01428D538D648D758D4F8B23
:1012E000588F698F7A8F9E012D5E3F4FC8010E94F3
:1012F000B010882379F21C8F0B8F81E08C831E82C3
:101300001F82188619861A861B861C861D861E86D5
:101310001F86188A198A1A8ADF91CF911F910F911F
:1013200008952F923F924F925F926F927F928F9289
:101330009F92AF92BF92CF92DF92EF92FF920F9364
:101340001F93CF93DF93EC016B015A018D818111C3
:1013500003C08FEF9FEFDAC08C8180FFFACF4B89FB
:101360005C896D897E898A859B85AC85BD852501D3
:10137000612C712C8A019B01081B190B2A0B3B0B5A
:10138000041515052605370518F45A01A81AB90AD7
:1013900025011E0126E0220E311C4114510409F4DE
:1013A0007BC04A855B856C857D854A0181E09822FA
:1013B000ED818A019B01F9E03695279517950795F0
:1013C000FA95D1F78B8D9C8DE23051F4FC01628D42
:1013D000738D848D958D600F711F821F931F3EC08A
:1013E000FC0174807A94702281149104C9F4711004
:1013F00017C0452B462B472B49F48F89988DA98D13
:10140000BA8D8E839F83A887B9870AC04E815F817A
:101410006885798591010E942C10882309F499CF61
:10142000EB8DFC8D6E817F81888599856250710975
:1014300081099109058404C0660F771F881F991FD1
:101440000A94D2F70685178520893189600F711FAC
:10145000821F931F670D711D811D911D20E032E0D9
:101460002819390932012415350508F439012C8170
:1014700026FD04C06114F2E07F06A1F5009106018B
:10148000109107012091080130910901601771073F
:101490008207930719F426C0C50138C0760183017D
:1014A0009401AB01BC0180913402909135020E94FD
:1014B0003F07882309F44DCFC60CD71C04C0E81B96
:1014C000F90BCE0EDF1E8A859B85AC85BD85860D0A
:1014D000971DA11DB11D8A879B87AC87BD874618C4
:1014E00057085BCF40E00E94CB0F882309F431CF2F
:1014F000C4018A5C9D4FD6019C01260D371DFC015D
:10150000E217F307E1F241914D93FACFDF91CF91CA
:101510001F910F91FF90EF90DF90CF90BF90AF9011
:101520009F908F907F906F905F904F903F902F9003
:101530000895FF920F931F93CF93DF931F92CDB720
:10154000DEB78C01FC018581823018F480E090E0E8
:1015500034C0F8014285538564857585A5E076958C
:10156000679557954795AA95D1F7F42FFF70FF2EF1
:1015700041E050E0BE016F5F7F4FC8010E949109BA
:10158000019719F4298130E002C02FEF3FEF2F3F80
:101590003F4FE1F2F8014285538564857585415ED0
:1015A0005F4F6F4F7F4F4287538764877587F0E2A5
:1015B000FF9EC00111248A5C9D4F0F90DF91CF9157
:1015C0001F910F91FF9008954F925F926F927F92BB
:1015D000AF92BF92CF92DF92EF92FF920F931F9341
:1015E000CF93DF93EC016A017B012D81222309F463
:1015F00057C08B899C89AD89BE8984179507A6073A
:10160000B70708F44DC04EC08A859B85AC85BD8563
:10161000EB8DFC8DE585F0E03996AC01BD014150C4
:101620005109610971090E2E04C076956795579589
:1016300047950A94D2F797018601015011092109B3
:10164000310904C03695279517950795EA95D2F785
:101650000417150726073707B0F58F89988DA98DD0
:10166000BA8D8E839F83A887B987280139015E01CF
:1016700086E0A80EB11C411451046104710461F1AB
:101680004E815F816885798595018B8D9C8D0E9447
:101690002C1091E0491A5108610871088111EBCFB3
:1016A00080E01FC02230C1F0C114D104E104F10474
:1016B00009F0AACF1E821F82188619861A861B86F9
:1016C0001C861D860DC0892B8A2B8B2B31F2041BA7
:1016D000150B260B370BC9CFCA86DB86EC86FD8639
:1016E00081E0DF91CF911F910F91FF90EF90DF90FC
:1016F000CF90BF90AF907F906F905F904F90089584
:101700000F931F93CF93DF93EC018D818823C9F151
:101710008C8187FF30C061E0CE010E94F0088C010F
:10172000009779F18D81823048F44B895C896D890D
:101730007E89F801448F558F668F778F4F89588D3A
:10174000698D7A8DF801538F428F758B648BE09190
:101750002D02F0912E02309759F0B8016A5E7F4F4A
:10176000C80148960995F801808D918D938B828BE5
:101770008C818F778C83DF91CF911F910F910C9487
:10178000900F80E0DF91CF911F910F910895CF933B
:10179000DF93EC010E94800B882319F01D8281E009
:1017A00001C080E0DF91CF9108954F925F926F92D8
:1017B0007F92AF92BF92CF92DF92EF92FF920F9300
:1017C0001F93CF93DF9300D000D0CDB7DEB75C017D
:1017D0006A017B01FC0185818130F1F4848181FF04
:1017E0001BC0F50183899489A589B689841795075B
:1017F000A607B70788F0892B8A2B8B2B09F479C0B1
:10180000F5014284538464847584B701A601C5013F
:101810000E94E40A811102C080E06CC0F501838D52
:10182000948DC114D104E104F10471F44789508D01
:10183000618D728D0E94D112882371F3F501178A90
:10184000108E118E128E3AC0F50146815781608547
:1018500071859E012F5F3F4F0E942C108823E1F27B
:1018600049815A816B817C81F501838D948DFC01C6
:101870002789203129F408EF1FEF20E030E004C071
:1018800008EF1FEF2FEF3FE0401751076207730784
:10189000A8F40E94D112882309F4BECFF501468135
:1018A0005781608571850FEF1FEF2FEF3FE0838D2C
:1018B000948D0E941B11882309F4AECFF501C38AD1
:1018C000D48AE58AF68A848180688483C5010E946F
:1018D000800B882309F4A0CFB701A6014C145D0446
:1018E0006E047F0410F4B301A201C5010E94E40A52
:1018F00001C081E00F900F900F900F90DF91CF917A
:101900001F910F91FF90EF90DF90CF90BF90AF901D
:101910007F906F905F904F900895FF920F931F9369
:10192000CF93DF93EC01F42E80E2689FF001112445
:10193000EA5CFD4F8385817129F0842F827411F058
:1019400080E053C06A8B8091060190910701A091BD
:101950000801B09109018E879F87A88BB98B4489B4
:10196000558960E070E0BA0155274427028D138D38
:1019700020E030E0402B512B622B732B4F8B588F84
:10198000698F7A8F8385887151F4048D158D268D2A
:10199000378D0B8B1C8B2D8B3E8B81E00CC08031E7
:1019A00079F69E012D5E3F4F8B8D9C8D0E94B0106D
:1019B000882331F284E08D838F2D8F708C831E827B
:1019C0001F82188619861A861B861C861D86F6FEBF
:1019D0000BC040E050E0BA01CE01DF91CF911F91E2
:1019E0000F91FF900C94D50B81E0DF91CF911F9167
:1019F0000F91FF900895AF92BF92CF92DF92EF9236
:101A0000FF920F931F93CF93DF93CDB7DEB72B9742
:101A10000FB6F894DEBF0FBECDBF7C016B01CA01CB
:101A2000B22EF70125812111B9C0BE016F5F7F4F32
:101A30000E940909882309F4B1C0F601838D948DB1
:101A4000F701948F838FF601168217821086118614
:101A50001286138614861586A12CF601028513853D
:101A60002485358583899489A589B689081719073E
:101A70002A073B07E8F545E0369527951795079522
:101A80004A95D1F70F70C6010E94990A009709F490
:101A900085C0FC012081222311F0253EB9F4A1105C
:101AA0000EC0F701028B4091060150910701609131
:101AB00008017091090146875787608B718BFC0183
:101AC0008081AA24A3948111C8CF12C04BE050E0BA
:101AD000BC01CE0101960E94F12E892B09F0BDCFE9
:101AE0008B2D8073803309F459C04B2D602F52C069
:101AF0008B2D8271823109F051C0AA2041F061E042
:101B0000C7010E94F0088C01009779F447C0F601E4
:101B10008581823009F442C0C6010E948F08882363
:101B2000E9F1F701128A06E312E080E2F80111926E
:101B30008A95E9F78BE0FE013196D80101900D926C
:101B40008A95E1F7E0912D02F0912E02309739F05D
:101B5000B801625F7F4FC8014096099509C081E2D4
:101B600098E2F801918B808B80E098E097878687D8
:101B7000F80180899189938B828B918F808F8685E4
:101B80009785978B868B0E94900F882339F04B2D79
:101B9000F7016289C7010E948D0C01C080E02B967D
:101BA0000FB6F894DEBF0FBECDBFDF91CF911F916E
:101BB0000F91FF90EF90DF90CF90BF90AF9008957E
:101BC0002F923F924F925F926F927F928F929F924D
:101BD000AF92BF92CF92DF92EF92FF920F931F933B
:101BE000CF93DF9300D000D01F92CDB7DEB78C012A
:101BF0007B013A01DC0115968C9115978130C9F46F
:101C000014968C9181FF15C082FF1BC0F801438997
:101C100054896589768982859385A485B5858417DD
:101C20009507A607B70769F0C8010E94E40A811169
:101C300008C081E090E0F8019383828380E090E027
:101C400046C1630180C0D8015B968D919C915C97E1
:101C5000FC01F481F150B501A40129E07695679566
:101C6000579547952A95D1F7F423FD8321E09222D9
:101C7000FF2309F474C080E092E0881999095601A5
:101C80008C159D0508F45C01D8015B96ED91FC91E3
:101C90005C9716962D903D904D905C901997B2E010
:101CA0002B1A310841085108058404C0220C331C4A
:101CB000441C551C0A94D2F786859785A089B18962
:101CC000280E391E4A1E5B1EED812E0E311C411C52
:101CD000511CA114F2E0BF0609F088C080910601F2
:101CE00090910701A0910801B09109018215930517
:101CF000A405B50559F48FEF9FEFDC018093060131
:101D000090930701A0930801B09309019701B201D4
:101D1000A10180913402909135020E94110888231C
:101D200009F487CF9EEFF91ACA18DB08F8018285FB
:101D30009385A485B5858A0D9B1DA11DB11D828744
:101D40009387A487B587D8011A968D909D90AD9002
:101D5000BC901D97C114D10409F075CF8AC08114BD
:101D6000910409F088CF16964D915D916D917C910B
:101D70001997411551056105710559F457968D91D3
:101D80009D910D90BC91A02D0097A105B10541F545
:101D900021C09E012F5F3F4F0E942C10882309F421
:101DA0004ECF89819A81AB81BC81F801238D348D1E
:101DB000F9012789203129F448EF5FEF60E070E0F6
:101DC00004C048EF5FEF6FEF7FE084179507A60729
:101DD000B70730F0C8010E94650881114CCF29CFA8
:101DE000F80186839783A087B18745CF811491043A
:101DF00029F5D8011A964D915D916D917C911D97B1
:101E000053968D919D910D90BC91A02D4817590727
:101E10006A077B0798F00E94900F882309F409CF86
:101E20002092060130920701409208015092090168
:101E30008091330281608093330208C041E0C20187
:101E4000B1010E94CB0F882309F4F3CEC4018A5C50
:101E50009D4FD7019C012A0D3B1DFC01E217F307A2
:101E600019F04D914193FACFE81BF90BEE0EFF1ECE
:101E70005BCF53968D919D910D90BC91A02DF80153
:101E8000248188159905AA05BB0538F4838A948AAC
:101E9000A58AB68A206824830CC080912D02909177
:101EA0002E02892B31F06114710419F02068F801B9
:101EB0002483D80114968C9183FD02C0C30107C00E
:101EC000C8010E94800B882309F4B3CEF7CF0F908E
:101ED0000F900F900F900F90DF91CF911F910F9166
:101EE000FF90EF90DF90CF90BF90AF909F908F903A
:101EF0007F906F905F904F903F902F900895CF9379
:101F0000DF931F92CDB7DEB7698341E050E0BE0199
:101F10006F5F7F4F0E94E00D0F90DF91CF9108958A
:101F200080913302882399F1409106015091070175
:101F3000609108017091090126E332E0809134023A
:101F4000909135020E941108882319F140912F02C7
:101F50005091300260913102709132024115510569
:101F60006105710591F026E332E080913402909191
:101F700035020E941108882361F010922F021092FE
:101F8000300210923102109232021092330281E03C
:101F9000089580E00895CF92DF92EF92FF92CF9361
:101FA0006B017C01C42F8091060190910701A091E3
:101FB0000801B09109018C159D05AE05BF05D1F052
:101FC0000E94900F811102C080E01AC026E332E027
:101FD000B701A60180913402909135020E94BE079C
:101FE000882391F3C0920601D0920701E092080184
:101FF000F0920901809133028C2B8093330281E0AF
:10200000CF91FF90EF90DF90CF900895CF92DF9225
:10201000EF92FF926B017C010E94900F8823B1F038
:10202000E6E3F2E0119284E0E633F807D9F7C092D4
:102030000601D0920701E0920801F0920901809117
:10204000330281608093330281E001C080E0FF9021
:10205000EF90DF90CF9008958F929F92AF92BF92B2
:10206000CF92DF92EF92FF920F931F93CF93DF9364
:102070008C016A017B01E901FC0181859285A385C0
:10208000B4850196A11DB11D84179507A607B70752
:1020900010F480E058C0F801438954896589768935
:1020A0008789803129F4BB27AF2D9E2D8D2D09C046
:1020B000D701C60127E0B695A795979587952A95EC
:1020C000D1F74C015D01840E951EA61EB71EC501F9
:1020D000B4018090060190900701A0900801B09093
:1020E0000901681579058A059B0589F4F801878936
:1020F000803199F4DD24EE24FF24F601EE0FFF1F5A
:10210000EA5CFD4F80819181A0E0B0E017C040E023
:102110000E94CB0F8111EACFBCCFE894C7F8DD2431
:10212000EE24FF24F601EE0FFF1FEE0FFF1FEA5C07
:10213000FD4F80819181A281B381BF708883998393
:10214000AA83BB8381E0DF91CF911F910F91FF9014
:10215000EF90DF90CF90BF90AF909F908F900895B9
:102160004F925F926F927F92AF92BF92CF92DF9227
:10217000EF92FF920F931F93CF93DF9300D000D085
:10218000CDB7DEB78C0149835A836B837C835901B9
:10219000C12CD12C7601412C42E0542E612C712CA3
:1021A00049815A816B817C819E012F5F3F4FC8011D
:1021B0000E942C10882359F1D301C201F801058433
:1021C00004C0880F991FAA1FBB1F0A94D2F7C80E1C
:1021D000D91EEA1EFB1E49815A816B817C81878949
:1021E000803129F488EF9FEFA0E0B0E004C088EFD1
:1021F0009FEFAFEFBFE0481759076A077B0780F2F0
:10220000F501C082D182E282F38281E001C080E0E8
:102210000F900F900F900F90DF91CF911F910F9122
:10222000FF90EF90DF90CF90BF90AF907F906F9036
:102230005F904F9008954F925F926F927F928F922E
:102240009F92AF92BF92CF92DF92EF92FF920F9345
:102250001F93CF93DF93EC016A017B0128013901C1
:10226000423051056105710508F474C049855A85ED
:102270006B857C854F5F5F4F6F4F7F4F4C155D05C2
:102280006E057F0508F466C08B889C88AD88BE8883
:102290008F89803129F477276F2D5E2D4D2D09C050
:1022A000B701A601E7E07695679557954795EA95BA
:1022B000D1F7840E951EA61EB71E409106015091BF
:1022C0000701609108017091090184169506A60620
:1022D000B70671F48F89803199F4DD24EE24FF2450
:1022E000F601EE0FFF1FEA5CFD4F5182408218C0DD
:1022F00040E0C501B4010E94CB0F8111EBCF2AC091
:10230000E894C7F8DD24EE24FF24F601EE0FFF1F4A
:10231000EE0FFF1FEA5CFD4F4082518262827382A2
:10232000809133028160809333028A89823080F009
:102330008D819E81AF81B885880D991DAA1DBB1D19
:1023400080932F0290933002A0933102B093320217
:1023500081E001C080E0DF91CF911F910F91FF904C
:10236000EF90DF90CF90BF90AF909F908F907F9035
:102370006F905F904F9008952F923F924F925F928F
:102380006F927F929F92AF92BF92CF92DF92EF9225
:10239000FF920F931F93CF93DF93CDB7DEB7609774
:1023A0000FB6F894DEBF0FBECDBF5C014D875E87D0
:1023B0006F87788B1901D9014D905D906D907C905D
:1023C000411451046104710431F0BFEF4B1A5B0AF0
:1023D0006B0A7B0A10C0FC014080518062807380D0
:1023E000992493940D851E852F8538890130110518
:1023F0002105310509F0912CD50119962D913D91BA
:102400004D915C911C972F5F3F4F4F4F5F4F298736
:102410003A874B875C87730162011D821E821F828F
:102420001886F50181859285A385B4850D811E816D
:102430002F813885081719072A073B0708F056C06F
:1024400029853A854B855C852C153D054E055F0534
:1024500050F4A2E0CA2ED12CE12CF12CB2E04B2E8C
:10246000512C612C712C9E012F5F3F4FB701A601AB
:10247000C5010E942C108823C9F149815A816B81C2
:102480007C81D701C6010196A11DB11D452B462BAC
:10249000472B19F02C013D010FC0AC01BD014419BF
:1024A0005509660977090D851E852F8538894017DE
:1024B00051076207730779F02D813E814F8158855E
:1024C0002F5F3F4F4F4F5F4F2D833E834F83588782
:1024D0006C017D01A6CF0FEF1FEF2FEF3FE0B7019B
:1024E000A601C5010E941B11811118C080E041C0E6
:1024F000D701C6010197A109B1098D839E83AF83DE
:10250000B88797018601AC01BD01C5010E941B116E
:10251000882361F3CD80DE80EF80F8844C145D0465
:102520006E047F0428F3D1014D915D916D917C91F2
:10253000411551056105710599F4F10140825182FF
:10254000628273829920A1F0FFEF4F1A5F0A6F0A2F
:102550007F0AD5014D925D926D927C92139708C0CF
:1025600093018201C5010E941B118111E6CFBECFEC
:1025700081E060960FB6F894DEBF0FBECDBFDF914D
:10258000CF911F910F91FF90EF90DF90CF90BF9070
:10259000AF909F907F906F905F904F903F902F9063
:1025A0000895AF92BF92CF92DF92EF92FF920F9376
:1025B0001F93CF93DF9300D000D0CDB7DEB75C017F
:1025C0006A017B0182E090E0A0E0B0E0F501808349
:1025D0009183A283B3839E012F5F3F4FB701A60172
:1025E000C5010E942C10882311F100E010E0980131
:1025F000B701A601C5010E941B118823C1F0C98043
:10260000DA80EB80FC80F5018789803129F488EF3E
:102610009FEFA0E0B0E004C088EF9FEFAFEFBFE016
:10262000C816D906EA06FB06B0F281E001C080E0D8
:102630000F900F900F900F90DF91CF911F910F91FE
:10264000FF90EF90DF90CF90BF90AF9008958F9262
:102650009F92AF92BF92CF92DF92EF92FF920F9331
:102660001F93CF93DF93EC01142F70933502609387
:102670003402442341F1453010F080E0EFC040E0E7
:1026800060E070E0CB010E94CB0F8823B1F320E122
:10269000129FF0011124EC51FC4F80818F7769F774
:1026A00084859585A685B78584369105A105B105F4
:1026B00020F3C084D184E284F384C114D104E10402
:1026C000F10421F4DACFC12CD12C760140E0C7010E
:1026D000B6010E94CB0F882381F280914102909134
:1026E00042028115924049F630914602332329F285
:1026F0008091440290914502892B09F4BECF20912C
:102700004302222309F4B9CF3A8B2C831D8630E093
:1027100041E050E06D85062FCA01062E02C0880FE9
:10272000991F0A94E2F72817390731F081E0860FE4
:102730008D87683078F3A1CF20914C0230914D0203
:102740002115310519F040E050E008C020915A02EF
:1027500030915B0240915C0250915D022D833E837B
:102760004F8358878091440290914502460157015A
:10277000880E991EA11CB11C8B8A9C8AAD8ABE8AC8
:10278000E0914702F0914802F98FE88FA09146024C
:10279000B0E00E94A32C680D791D8A1D9B1D6A8FD5
:1027A0007B8F8C8F9D8F15E0EE0FFF1F1A95E1F741
:1027B000E150FE4FEF2FFF27E695DC01CB018E0F96
:1027C0009F1FA11DB11D8E879F87A88BB98B8090FD
:1027D000490290904A028114910419F0A12CB12C65
:1027E00008C08090560290905702A0905802B09076
:1027F0005902A7019601281B390B4A0B5B0BDA0122
:10280000C901880D991DAA1DBB1D04C0B695A795C9
:10281000979587950A95D2F789879A87AB87BC8762
:10282000853F3FE09307A105B10510F48CE014C08B
:10283000853F9F4FA105B10510F480E10DC0809147
:10284000620290916302A0916402B09165028A8F46
:102850009B8FAC8FBD8F80E28F8B81E0DF91CF911A
:102860001F910F91FF90EF90DF90CF90BF90AF90AE
:102870009F908F900895FF920F931F93CF93DF93B4
:10288000FC010081C181D281F8948981F02EF094FD
:102890008F21898378941DE7115029F182E090E01F
:1028A0000E94262388818023B9F3F8948A818F219E
:1028B0008A838981802B8983789480EE91E00E94BD
:1028C0002623F89489818F21898386E490E00E94F1
:1028D00026238881802311E009F010E078948AE9AA
:1028E00091E00E942623812FDF91CF911F910F91BC
:1028F000FF9008951F93CF93DF93FC011081C18156
:10290000D281912F909560FF12C0F8948A8189231B
:102910008A838981812B89838AE090E00E94262323
:102920008A81812B8A83789487E390E011C0F894A0
:102930008A8189238A838981812B898381E490E03C
:102940000E9426238A81812B8A83789485E090E0F7
:10295000DF91CF911F910C9426230F931F93CF9358
:10296000DF93FC011081C181D281F8948981812B90
:1029700089838A81012F009580238A8383E090E0F8
:102980000E9426238981802389838AE090E00E9427
:102990002623C881789485E390E00E9426231C2397
:1029A00081E009F480E0DF91CF911F910F910895AC
:1029B000CF92DF92EF92FF920F931F93CF93DF930B
:1029C0001F92CDB7DEB76C01E62E08E010E0FF24C1
:1029D000F39461E09F2D9E2109F460E0C6014983D4
:1029E0000E947A14FF0C015011094981011511054B
:1029F00081F7411115C0F894D6011196ED91FC9123
:102A0000129791818C918095892381831196ED9104
:102A1000FC91129792818C9180958923828378947E
:102A20000F90DF91CF911F910F91FF90EF90DF906A
:102A3000CF900895EF92FF920F931F93CF93DF9360
:102A40008C01C8E0D0E0F12CEE24E394C8010E9490
:102A5000AD148111FE28EE0C2197C1F78F2DDF9167
:102A6000CF911F910F91FF90EF900895CF92DF9239
:102A7000FF920F931F93CF93DF931F92CDB7DEB7D3
:102A80008C01F62E40E065E579830E94D814CF2CA6
:102A90007981D72E88E0F82EF60161916F0140E030
:102AA000C8010E94D814FA94B9F70F90DF91CF9122
:102AB0001F910F91FF90DF90CF900895FC01138636
:102AC0001586148627E030E0DF01A20FB31F1396AE
:102AD0001C922115310519F021503109F5CF0895C7
:102AE0001F93CF93DF93EC01162F60E0812F0E949C
:102AF000B223612F70E0FB01E15FFD4FE491E883B9
:102B0000FB01ED5DFD4FE491F0E0EE0FFF1FE95C8E
:102B1000FD4F859194919A838983CE01DF91CF9166
:102B20001F910C945E15AF92BF92CF92DF92EF92FD
:102B3000FF920F931F93CF93DF931F92CDB7DEB712
:102B40005C01E62ED72EFC01858581115DC0C50193
:102B50000E943B14811105C0F50113861586148669
:102B60006EC040E060EFC5010E94D81401E0F12C76
:102B7000C12C11E0C5010E94AD14682FC501698305
:102B80000E94AD146981613019F48130B9F433C009
:102B90002F2D30E068131BC0F5018385181730F422
:102BA000E20FF31F8381802349F402C0181731F02C
:102BB00060E0193058F4F501148708C0F501EF0DF5
:102BC000F11D8381802B838361E009C0C12EF50153
:102BD000E20FF31F8381902F909589238383C50192
:102BE0000E947A141F5F000F11F4F39401E0F7E0E4
:102BF000FF1508F0BFCF113438F0F501C386C110BE
:102C000018C081E0858715C0F501138615861486E6
:102C100080E0EE2DFD2D20E030E0D501A20FB31FA6
:102C200013969C9191932F5F3F4F28303105A9F760
:102C300006C0F5018381882339F381E0EACF0F9044
:102C4000DF91CF911F910F91FF90EF90DF90CF9088
:102C5000BF90AF900895DC0180E0615038F0ED91B5
:102C6000E827F0E0E858FF4F8491F7CF08951F92CE
:102C70000F920FB60F9211242F933F934F935F93B0
:102C80006F937F938F939F93AF93BF93EF93FF9334
:102C9000E0917804F0917904309709F451C0868D61
:102CA000A685B785958581FF04C08C91892329F479
:102CB00047C08C91892309F043C0A389B4899C91B2
:102CC0008589809589238C93868997890197F1F767
:102CD000208D318DA685B785758558E040E0C90106
:102CE0000197F1F7842F90E095958795482F6C9187
:102CF000672309F04068515091F7868D81FD40951A
:102D00008091370490E001968F73992720913604C3
:102D1000281749F0A0913704B0E0A85CBB4F4C9352
:102D20008093370403C0868D8160868F828D938D5A
:102D30000197F1F7A389B4898C919589892B8C939C
:102D4000FF91EF91BF91AF919F918F917F916F9183
:102D50005F914F913F912F910F900FBE0F901F9059
:102D60001895CF93CFB7F89480917D04811127C037
:102D7000EDE2F2E08491E9E1F2E09491E82FF0E0F5
:102D8000EE0FFF1FE55BFD4FA591B4918C91892358
:102D900021F461E08AE00E94EB2361E08AE00E9476
:102DA000B2238CB580618CBD8CB580648CBD61E034
:102DB0008DE00E94B22361E08BE00E94B2238091FB
:102DC0007D048F5F80937D04CFBFCF910895809164
:102DD000AE0490E02091AF04821B910908952091E8
:102DE000AF048091AE04281750F4E22FF0E0E055D4
:102DF000FB4F808190E02F5F2093AF0408958FEF09
:102E00009FEF0895E091AF048091AE04E81730F48D
:102E1000F0E0E055FB4F808190E008958FEF9FEF49
:102E200008950895CF92DF92EF92FF920F931F9330
:102E3000CF93DF937C01CB018A0120918A04222366
:102E400089F0EB016B01C40ED51ECC15DD0569F0D0
:102E50006991D701ED91FC910190F081E02DC701BE
:102E60000995F3CF642F0E946718C801DF91CF91B5
:102E70001F910F91FF90EF90DF90CF900895CF9327
:102E8000DF931F92CDB7DEB7698320918A04222396
:102E9000D1F020918B04203240F021E030E0FC01A1
:102EA0003383228380E090E015C080918C04E82F6A
:102EB000F0E0E357FB4F998190838F5F80938C0400
:102EC00080938B0405C061E0CE0101960E946718D3
:102ED00081E090E00F90DF91CF910895FC01138283
:102EE000128248EE53E060E070E0448355836683CD
:102EF000778389E291E09183808308951092AF04F3
:102F00001092AE0410928C0410928B040C94B217A1
:102F1000862F413208F040E260EB74E00E94D01747
:102F20001092AF048093AE04089521E00C948817AA
:102F30000F93062F21E040918B046DE874E080919F
:102F4000AD040E94141810928C0410928B041092FD
:102F50008A040F91089561E00C9498178EE794E02D
:102F60000C946E1710923D0581E080933B05109202
:102F70003A0561E082E10E94EB2361E083E10E9477
:102F8000EB23E9EBF0E080818E7F808380818D7F71
:102F9000808388E48093B80085E48093BC00089522
:102FA000413208F03FC090913D059111FCCF91E076
:102FB00090933D0520933B052FEF2093D004109272
:102FC0001505240F2093140590933C0590913C0522
:102FD000880F892B80933C0580913A05813041F41C
:102FE00010923A0580913C058093BB0085EC01C0AE
:102FF00085EE8093BC0080913D058130E1F38091A6
:103000001505841710F44091150526E135E0FB0104
:10301000D9018A2F821B841718F48D918193F9CFDF
:10302000842F089580E008950F93413208F046C040
:1030300090913D059111FCCF92E090933D05009356
:103040003B059FEF9093D004109215054093140513
:10305000FB0166E175E0DB019A2F961B941718F4CB
:1030600091919D93F9CF10923C0590913C05880F6A
:10307000892B80933C0580913A05813041F4109270
:103080003A0580913C058093BB0085EC01C085EE3C
:103090008093BC00222321F080913D058230E1F332
:1030A0008091D0048F3F61F08091D004803251F044
:1030B0008091D004803341F483E007C081E005C0F3
:1030C00080E003C082E001C084E00F910895613286
:1030D00098F420913D05243089F46093F204FC01BA
:1030E00084EF94E0DC012A2F281B261718F4219185
:1030F0002D93F9CF80E0089581E0089582E008954E
:1031000085ED8093BC008091BC0084FDFCCF1092C3
:103110003D05089585EC8093BC0010923D0508950F
:103120001F920F920FB60F9211242F933F934F933C
:103130005F936F937F938F939F93AF93BF93EF931F
:10314000FF938091B900887F803609F49CC068F5B0
:10315000883209F45BC090F4803109F454C038F42B
:10316000882309F4F5C0883009F44DC0F5C08831D2
:1031700009F44CC0803209F45DC0EEC0803409F41B
:1031800068C048F4803309F455C0883309F0E4C0BE
:103190008093D004A8C0803509F44FC0883509F465
:1031A0005DC0883409F0D8C0D5C0883909F4C6C0DC
:1031B000A8F4883709F467C038F4883609F463C086
:1031C000803709F460C0C8C0883809F4B7C08039B6
:1031D00009F45FC0803809F0BFC05BC0803B09F4D0
:1031E00085C038F4803A09F466C0883A09F47EC094
:1031F000B3C0803C09F4A6C0883C09F4A3C0883B56
:1032000009F489C0A9C080913C0510C090911505B2
:1032100080911405981770F5E091150581E08E0FE7
:1032200080931505F0E0EA5EFA4F80818093BB0041
:1032300085EC85C08093D0048DC0E091150581E0B8
:103240008E0F809315058091BB00F0E0EA5EFA4F87
:10325000808390911505809114056DC0E09115054E
:1032600081E08E0F809315058091BB00F0E0EA5E4F
:10327000FA4F808380913B0581116CC081E080937F
:103280003A0584EA60C083E080933D051092D10442
:10329000CFCF8091D104803208F050C0E091D104AA
:1032A00081E08E0F8093D1048091BB00F0E0EE525C
:1032B000FB4F8083BDCF8091D104803230F4E09108
:1032C000D104F0E0EE52FB4F10820E948018609112
:1032D000D10470E0E0913605F091370582ED94E07D
:1032E00009951092D1040E948A1836C084E0809318
:1032F0003D051092F3041092F204E0913805F0912C
:10330000390509958091F204811105C081E080930F
:10331000F2041092F404E091F30481E08E0F8093A4
:10332000F304F0E0EC50FB4F80818093BB00909160
:10333000F3048091F204981708F47ACF85E880931B
:10334000BC000AC085EC8093BC0010923D0504C00F
:103350001092D0040E948018FF91EF91BF91AF911D
:103360009F918F917F916F915F914F913F912F919D
:103370000F900FBE0F901F901895FC01648175810E
:10338000868197810895CF93DF93EC0160E08A8175
:103390000E94B2231B861A861D861C861F861E86E7
:1033A000198A188A1B8A1A8ADF91CF910895CF93C0
:1033B000DF93FC01CB0129E331E0318320832FE04F
:1033C00030E0338322831482158216821782DF0154
:1033D0001A962AE0ED0119922A95E9F7158A148ABE
:1033E000168A178A108E118E128E138E148E158ED9
:1033F000178E168E11A210A212A213A214A215A249
:1034000016A217A210A611A612A613A614A615A6F8
:1034100049E150E060E070E046A757A760AB71ABB0
:103420004CEB52E060E070E042AB53AB64AB75AB89
:1034300091878087DF91CF910895CF92DF92EF92AD
:10344000FF920F931F93CF93DF93EC010E941A23F7
:103450000AA11BA12CA13DA1601B710B820B930B38
:103460000EA51FA528A939A9601771078207930720
:1034700008F447C00E941A236AA37BA38CA39DA3D0
:103480000C891D89C80101969D8B8C8B8A810E94B5
:103490006C23F8013596EE0FFF1FEC0FFD1F918393
:1034A00080838C899D89059761F51D8A1C8ACE8849
:1034B000DF88E88CF98C00E010E0FE01E00FF11FDE
:1034C0006285738580E090E00E94642B9B01AC01D3
:1034D000B601C7010E94632A6B017C010E5F1F4F7A
:1034E0000A30110551F720E030E040EA50E40E9434
:1034F000CB2A0E94382B7F8F6E8F1E8A1F8A188ED0
:10350000198EDF91CF911F910F91FF90EF90DF9077
:10351000CF9008958F929F92AF92BF92CF92DF92F9
:10352000EF92FF92CF93DF93EC010E941A23CEA07B
:10353000DFA0E8A4F9A46C197D098E099F09CAA827
:10354000DBA8ECA8FDA86C157D058E059F0508F489
:10355000BBC00E941A236EA37FA388A799A76E8D74
:103560007F8D80E090E00E94642B20E030E44CE905
:1035700055E40E941A2C20E030E040E85AE30E9413
:103580001A2C0E94382B79A368A388859985DC01C1
:10359000ED91FC910480F581E02D09954B015C01D2
:1035A00068A179A180E090E00E94642B6B017C010E
:1035B00020E030E048EC51E4C501B4010E94622AE9
:1035C00020E53DE847E95CE30E941A2C20E030E06A
:1035D00040E85FE30E94632A9B01AC01C701B6018A
:1035E0000E94CB2A6B017C0120E030E046E153E4ED
:1035F0000E94C72A87FF05C01C821D821E821F826F
:1036000063C020E030E44EE455E4C701B6010E94F7
:10361000162C18164CF440E050E060EA71E44C833C
:103620005D836E837F8350C020E030E040EE53E442
:10363000C701B6010E94C72A18166CF028E431EEC3
:103640004AED50E4C701B6010E941A2C27ED33EA77
:1036500040E852E416C020E030E246EB54E4C701F3
:10366000B6010E94C72A18167CF029E23CE54FED0E
:1036700050E4C701B6010E941A2C20E030E04EEF62
:1036800052E40E94622A0EC02AE939E949EA50E46C
:10369000C701B6010E941A2C20E030E64EE055E446
:1036A0000E94632A6C837D838E839F8320E030E0B9
:1036B0004AE754E46C817D818E819F810E94CB2AF0
:1036C0006C837D838E839F83DF91CF91FF90EF90FA
:1036D000DF90CF90BF90AF909F908F900895CF9341
:1036E000DF93EC010E941D1ACE01DF91CF910C9463
:1036F0008A1A0895FC0164857585868597850895E5
:103700004F925F926F927F928F929F92AF92BF92F1
:10371000CF92DF92EF92FF92CF93DF93EC018091F3
:10372000500581110DC00E941A23609344057093C7
:103730004505809346059093470581E080935005A9
:103740008091480581110DC00E941A2360934005A5
:1037500070934105809342059093430581E08093E7
:1037600048050E941A23C0904405D0904505E0907A
:103770004605F09047056C157D058E059F0508F4FC
:10378000A2C00E941A236C5E7F4F8F4F9F4F6093A1
:103790004405709345058093460590934705E09056
:1037A0003E05F0903F05C701019690933F05809339
:1037B0003E058A810E946C23F7013896EE0FFF1FA9
:1037C000EC0FFD1F9183808380913E0590913F0512
:1037D000059709F078C010923F0510923E05AA8C1B
:1037E000BB8CCC8CDD8CE12CF12CFE01EE0DFF1D91
:1037F00060897189882777FD8095982F0E94662BB4
:103800009B01AC01B501C6010E94632A5B016C01FA
:1038100082E0E80EF11C8AE0E816F10431F720E0BE
:1038200030E040EA50E4B501C6010E94CB2A4B01CA
:103830005C016EA37FA388A799A71A8E1B8E1C8E8E
:103840001D8ECC80DD80EE80FF8020E030E040EFF8
:1038500051E4C701B6010E941A2C20E030E04AE78B
:1038600054E40E941A2C2B013C0120E030E046E990
:1038700052E4C501B4010E941A2CA70196010E94CE
:103880001A2C20E030E04AE754E40E941A2C20E091
:1038900030E040E85AE30E941A2C9B01AC01C301BE
:1038A000B2010E94622A20E030E046E952E40E9420
:1038B000CB2A288539854A855B850E94622A6C87D8
:1038C0007D878E879F87DF91CF91FF90EF90DF906C
:1038D000CF90BF90AF909F908F907F906F905F90B0
:1038E0004F900895FC0183E491E09183808381E10E
:1038F00090E09383828340E050E060EA70E4448388
:103900005583668377831086118612861386148604
:10391000158616861786128E138E148E158E0895B0
:10392000FC016489758986899789089560E0FC01A6
:1039300082810C94B223CF92DF92EF92FF920F9389
:103940001F93CF93DF93EC0180916A0581110DC025
:103950000E941A2360935E0570935F058093600553
:103960009093610581E080936A05809162058111E1
:103970000DC00E941A2360935A0570935B058093D3
:103980005C0590935D0581E0809362050E941A2397
:1039900000915E0510915F052091600530916105F1
:1039A000601B710B820B930B08851985222717FD6D
:1039B0002095322F061717072807390708F076C019
:1039C0000E941A2360935E0570935F0580936005E3
:1039D000909361050091580510915905C801019611
:1039E00090935905809358058A810E946C23F801B1
:1039F0003596EE0FFF1FEC0FFD1F918380838091A2
:103A0000580590915905059709F050C01092590535
:103A100010925805C8A0D9A0EAA0FBA000E010E0D1
:103A2000FE01E00FF11F62857385882777FD809581
:103A3000982F0E94662B9B01AC01B601C7010E9422
:103A4000632A6B017C010E5F1F4F0A30110541F79D
:103A500020E030E040EA50E40E94CB2A6C8F7D8F5A
:103A60008E8F9F8F18A219A21AA21BA220E030E00D
:103A700040EA50E40E941A2C20E030E040E85AE38B
:103A80000E941A2C688F798F8A8F9B8F20E030E0FC
:103A900040E650E40E941A2C2C813D814E815F81CA
:103AA0000E94632A6C8B7D8B8E8B9F8BDF91CF91D5
:103AB0001F910F91FF90EF90DF90CF900895FC0140
:103AC0008DE491E09183808380E190E09383828311
:103AD00014821582168217828EE190E0918780878A
:103AE000148A158A168A178A108E118E128E138EDA
:103AF00010A211A212A213A20895FC0181EE97E078
:103B00009183808384E0828391E1938384838EE038
:103B1000858385E086831782089508958EE794E073
:103B20000C947E17FC0180E090E0823089F0DF0188
:103B3000A80FB91F18962C911897322F32953F7005
:103B40002F704AE0349F200D112418962C930DC03D
:103B50004285342F3695369536953E70232F220FA9
:103B6000220F230F4F70240F228701968730910573
:103B7000E1F6868590E08053984F91838083858518
:103B800082838485838383858483828585838185FD
:103B900086838085878308950F931F93CF93DF9348
:103BA000EC0147E050E062E370E08EE794E00E94B1
:103BB000951710E08EE794E00E94E716892B61F0DC
:103BC00001E0010F8EE794E00E94EF16FE01E10F85
:103BD000F11D8087102FEECF81E090E00E94262318
:103BE0008EE794E0DF91CF911F910F910C94AB176A
:103BF0000F931F93CF93DF93EC010E941A230F853D
:103C0000188929893A89601B710B820B930B693ED5
:103C100073408105910580F00E941A236F87788B8D
:103C2000898B9A8BCE010E94CC1DCE01DF91CF9162
:103C30001F910F910C94921DDF91CF911F910F91C5
:103C400008950F931F93CF93DF93EC0184E1FE015E
:103C500011928A95E9F7FE018AE090E011921192A3
:103C60000197E1F784E290E00E941B268C010E94FC
:103C70005F1D1983088382E190E00E941B268C015E
:103C800065E070E00E94BB1E1B830A838CE090E01D
:103C90000E941B268C010E9484221D830C8386E3D4
:103CA00090E00E941B268C016A817B810E94D719BB
:103CB0001F830E838AE290E00E941B268C010E94E3
:103CC000721C19870887DF91CF911F910F9108957A
:103CD0000F931F93CF93DF938C01CAE0D0E0F801DC
:103CE000819191918F01009711F00E941D262197DB
:103CF000B1F7DF91CF911F910F9108950F931F930B
:103D0000CF93DF938C01CAE0D0E0D8018D919D91D3
:103D10008D01009739F0DC01ED91FC910190F0816B
:103D2000E02D0995219789F7DF91CF911F910F9190
:103D300008950F931F93CF93DF938C01CAE0D0E0D7
:103D4000D8018D919D918D01009739F0DC01ED91A5
:103D5000FC910280F381E02D0995219789F7DF918D
:103D6000CF911F910F9108950895FC016481758191
:103D7000868197810895FF920F931F93CF93DF93CE
:103D8000EC01F62E87E591E09983888342E553E0C4
:103D900060E070E04A875B876C877D878EE090E00B
:103DA0000E941B268C016F2D0E94701519870887B1
:103DB000DF91CF911F910F91FF9008950F931F9363
:103DC000CF93DF93EC018885998561112CC062E85F
:103DD00075E00E949315811105C0888599850E9420
:103DE0005E1565C067E082E895E00E942B16909111
:103DF000890589135CC080918205803119F0883271
:103E000009F055C0888599850E943B1462E875E0E9
:103E1000888599850E94361541E064E488859985F6
:103E20000E94D8143BC00E943B1462E875E088856C
:103E300099850E94361540E06EEB888599850E9431
:103E4000D81406E715E0888599850E941A15F801AF
:103E500081938F01F5E00F371F07A9F788859985B2
:103E60000E945E156091770570E0762F662780913D
:103E70007605682B882777FD8095982F0E94662B02
:103E800020E030E040E85DE30E941A2C6093720568
:103E90007093730580937405909375056091720516
:103EA00070917305809174059091750503C060E071
:103EB00070E0CB01DF91CF911F910F9108950F9387
:103EC0001F93CF93DF93EC010E941A230E851F8569
:103ED00028893989601B710B820B930B0A851B851E
:103EE0002C853D856017710782079307B0F00E940B
:103EF0001A236E877F87888B998B61E0CE010E94A1
:103F0000DE1E6C837D838E839F8360E0CE01DF9114
:103F1000CF911F910F910C94DE1EDF91CF911F91D5
:103F20000F9108950F931F93CF93DF93EC018B01B3
:103F300084E090E0998388831C82CE0105960E94DC
:103F4000F20218A219A21AA21BA21B830A83DF91F4
:103F5000CF911F910F9108950895EF92FF920F93C3
:103F60001F93CF93DF93CDB7DEB76B970FB6F8945F
:103F7000DEBF0FBECDBF7C0163EE71E0CE010196C6
:103F80000E94E629CE0101960E945F2861E08AE046
:103F90000E94B223F701608181EE91E00E947303D9
:103FA00081110BC067EC71E0CE0101960E94E629F9
:103FB000CE0101960E945F2850C081E0F701848302
:103FC00065EB71E0CE0101960E94E629CE010196D3
:103FD0000E945F2823E14DE551E061EE71E0CE01E2
:103FE00001960E948C0487010B5F1F4F8B819C817F
:103FF000F701908787838D819E81AF81B885818706
:104000009287A387B48749855A856B857C854587C8
:1040100056876787708B8DE0FE013D96D7015196DC
:1040200001900D928A95E1F78A8D9B8DF701978F0C
:10403000868FC8010E946603882379F0C8010E9418
:104040000503672B682B692B41F46CE871E0C8010C
:104050000E949B26C8010E9454036B960FB6F894E9
:10406000DEBF0FBECDBFDF91CF911F910F91FF90AB
:10407000EF900895CF93DF9300D000D000D0CDB75C
:10408000DEB72AE0CE0101960E949529BE016F5F3E
:104090007F4F8AE895E00E941B2ACE0101960E947C
:1040A0005F2868E671E08AE895E00E94222A269659
:1040B0000FB6F894DEBF0FBECDBFDF91CF9108954C
:1040C000CF92DF92EF92FF920F931F93CF93DF93E4
:1040D000CDB7DEB76B970FB6F894DEBF0FBECDBF7E
:1040E0008C01DC0114968C91882309F4E9C10E94AB
:1040F0001A23F801C0A0D1A0E2A0F3A06C197D0999
:104100008E099F09613D77408105910508F4D8C16A
:104110006EE771E08AE995E00E949B2666E871E00F
:104120008AE895E00E9424296091CE017091CF0128
:104130004AE0CE0101960E946929BE016F5F7F4F60
:104140008AE895E00E941B2ACE0101960E945F2812
:104150006BE171E08AE895E00E94222A4AE06091D2
:10416000D001CE0101960E943C29BE016F5F7F4FB6
:104170008AE895E00E941B2ACE0101960E945F28E2
:104180006BE171E08AE895E00E94222A4AE06091A2
:10419000D101CE0101960E943C29BE016F5F7F4F85
:1041A0008AE895E00E941B2ACE0101960E945F28B2
:1041B0006BE171E08AE895E00E94222A4AE0609172
:1041C000D301CE0101960E943C29BE016F5F7F4F53
:1041D0008AE895E00E941B2ACE0101960E945F2882
:1041E0006BE171E08AE895E00E94222A4AE0609142
:1041F000D401CE0101960E943C29BE016F5F7F4F22
:104200008AE895E00E941B2ACE0101960E945F2851
:104210006BE171E08AE895E00E94222A4AE0609111
:10422000D501CE0101960E943C29BE016F5F7F4FF0
:104230008AE895E00E941B2ACE0101960E945F2821
:1042400068E671E08AE895E00E94222A23E14DE5C4
:1042500051E061EE71E0CE0101960E948C0478017C
:10426000F5E0EF0EF11C8B819C81D80118969C9390
:104270008E9317978D819E81AF81B885F8018187D4
:104280009287A387B48789859A85AB85BC85858706
:104290009687A787B08B8DE0FE013D96D801519699
:1042A00001900D928A95E1F78A8D9B8DD8015F96DA
:1042B0009C938E935E97C7010E946603882391F0BA
:1042C0006AE875E0C7010E948226C7010E94540374
:1042D0006AE875E0CE0101960E941B29CE01019685
:1042E0000E945F2866E871E08AE895E00E94242930
:1042F000D8011296ED91FC911397808191810097DE
:1043000051F0DC01ED91FC910480F581E02D0995DF
:10431000AB01BC0103C040E050E0BA01C8010E94FB
:104320003A20D8011296ED91FC91139782819381E6
:10433000009751F0DC01ED91FC910480F581E02DB6
:104340000995AB01BC0103C040E050E0BA01C801CF
:104350000E943A20D8011296ED91FC911397848126
:104360009581009749F1DC01ED91FC910480F58184
:10437000E02D0995AB01BC01C8010E943A2068E715
:1043800071E08AE995E00E945D26D8011296ED91D0
:10439000FC91139784819581DC01ED91FC9104805F
:1043A000F581E02D0995AB01BC0122E030E08AE9FE
:1043B00095E00E944D2806C040E050E0BA01C801D7
:1043C0000E943A20D8011296ED91FC9113978681B4
:1043D0009781009751F0DC01ED91FC910480F5810B
:1043E000E02D0995AB01BC0103C040E050E0BA01EB
:1043F000C8010E943A20D8011296ED91FC911397C2
:1044000080859185009751F0DC01ED91FC9104804D
:10441000F581E02D0995AB01BC0103C040E050E0FF
:10442000BA01C8010E943A2023E14DE551E061EE56
:1044300071E0CE0101960E948C048B819C81F80171
:10444000908787838D819E81AF81B8858187928790
:10445000A387B48789859A85AB85BC858587968730
:10446000A787B08B8DE0FE013D96D8015196019053
:104470000D928A95E1F78A8D9B8DD8015F969C936A
:104480008E935E97C7010E946603882391F06AE8C5
:1044900075E0C7010E94AD26C7010E9454036AE877
:1044A00075E0CE0101960E941B29CE0101960E9463
:1044B0005F280E941A23F80160A371A382A393A32B
:1044C0006B960FB6F894DEBF0FBECDBFDF91CF91D4
:1044D0001F910F91FF90EF90DF90CF90089566E8C5
:1044E00071E08AE895E00C94CD288AE895E00C9478
:1044F0005F28FC01608571858285938508956EE152
:1045000070E002960C9490282EE631E0FC01219395
:104510003193CF0166E871E00C94CD280F931F937F
:10452000CF93DF93EC018AE995E00E9421241816CD
:1045300019067CF48AE995E00E943A24182F682F26
:10454000CE0102960E94322A1D3019F481E0809338
:104550009005809190058823F1F08E010E5F1F4F2A
:1045600060E070E0C8010E94452AFC018081992723
:1045700087FD9095C0970A9738F4C8010E94572A82
:10458000688779878A879B8766E871E0C8010E94FF
:10459000242910929005DF91CF911F910F910895DA
:1045A0001F920F920FB60F9211242F933F938F9368
:1045B0009F93AF93BF938091920590919305A091A3
:1045C0009405B09195053091910523E0230F2D3787
:1045D00020F40196A11DB11D05C026E8230F029607
:1045E000A11DB11D20939105809392059093930591
:1045F000A0939405B09395058091960590919705A9
:10460000A0919805B09199050196A11DB11D8093C7
:10461000960590939705A0939805B0939905BF913F
:10462000AF919F918F913F912F910F900FBE0F905F
:104630001F9018952FB7F89460919205709193058B
:1046400080919405909195052FBF08958230910532
:1046500038F0880F991F880F991F05970197F1F778
:104660000895789484B5826084BD84B5816084BDEA
:1046700085B5826085BD85B5816085BDEEE6F0E0DB
:10468000808181608083E1E8F0E010828081826037
:104690008083808181608083E0E8F0E080818160B8
:1046A0008083E1EBF0E0808184608083E0EBF0E0E8
:1046B000808181608083EAE7F0E08081846080838C
:1046C0008081826080838081816080838081806836
:1046D00080831092C10008958E3008F08E5087704C
:1046E00020910A0190E4299F90011124822B80934C
:1046F0007C0080917A00806480937A0080917A00B7
:1047000086FDFCCF809178002091790090E0922B7B
:104710000895833081F028F4813099F08230A1F03F
:1047200008958730A9F08830B9F08430D1F48091B1
:1047300080008F7D03C0809180008F778093800000
:10474000089584B58F7702C084B58F7D84BD0895A8
:104750008091B0008F7703C08091B0008F7D8093EF
:10476000B0000895CF93DF9390E0FC01E15FFD4F2F
:104770002491FC01ED5DFD4F8491882349F190E087
:10478000880F991FFC01E55BFD4FA591B4918F5BEC
:104790009D4FFC01C591D4919FB7611108C0F89459
:1047A0008C91209582238C93888182230AC0623069
:1047B00051F4F8948C91322F309583238C93888117
:1047C000822B888304C0F8948C91822B8C939FBF9A
:1047D000DF91CF9108950F931F93CF93DF931F9293
:1047E000CDB7DEB7282F30E0F901E550FE4F8491B8
:1047F000F901E15FFD4F1491F901ED5DFD4F049169
:104800000023C9F0882321F069830E9489236981EC
:10481000E02FF0E0EE0FFF1FEF5BFD4FA591B4918D
:104820009FB7F8948C91611103C01095812301C04A
:10483000812B8C939FBF0F90DF91CF911F910F9190
:104840000895FC01818D228D90E0805C9F4F821B3A
:1048500091098F7399270895FC01918D828D981786
:1048600031F0828DE80FF11D858D90E008958FEF76
:104870009FEF0895FC01918D828D981761F0828DD4
:10488000DF01A80FB11D5D968C91928D9F5F9F7384
:10489000928F90E008958FEF9FEF08958EEB95E251
:1048A000892B49F080E090E0892B29F00E94BE25F9
:1048B00081110C9400000895FC01848DDF01A80F84
:1048C000B11DA35ABF4F2C91848D90E001968F7338
:1048D0009927848FA689B7892C93A089B1898C9157
:1048E00080648C93938D848D981306C00288F3891D
:1048F000E02D80818F7D80830895CF93DF93EC013D
:10490000888D8823C9F0EA89FB89808185FD05C0EF
:10491000A889B9898C9186FD0FC00FB607FCF5CF29
:10492000808185FFF2CFA889B9898C9185FFEDCF71
:10493000CE010E945C24E7CFDF91CF910895CF9202
:10494000DF92FF920F931F93CF93DF931F92CDB708
:10495000DEB76C0181E0D60158968C9358975B9630
:104960009C915B975C968C915C97981307C05096CE
:10497000ED91FC915197808185FD2EC0F601038D4C
:1049800010E00F5F1F4F0F731127F02EF601848D7B
:10499000F81211C00FB607FCF9CFD6015096ED9171
:1049A000FC915197808185FFF1CFC60169830E94F8
:1049B0005C246981EBCF838DE80FF11DE35AFF4F33
:1049C0006083D6015B960C935B975296ED91FC91B8
:1049D0005397808180620CC0D6015696ED91FC9170
:1049E000579760835096ED91FC9151978081806438
:1049F000808381E090E00F90DF91CF911F910F9124
:104A0000FF90DF90CF900895BF92CF92DF92EF9208
:104A1000FF92CF93DF93EC016A017B01B22EE8890C
:104A2000F98982E08083411581EE5807610571059F
:104A3000A1F060E079E08DE390E0A70196010E948B
:104A4000812C2150310941095109569547953795D7
:104A50002795211580E1380798F0E889F9891082B7
:104A600060E874E88EE190E0A70196010E94812C35
:104A70002150310941095109569547953795279598
:104A8000EC85FD853083EE85FF852083188EEC89CB
:104A9000FD89B082EA89FB89808180618083EA890F
:104AA000FB89808188608083EA89FB8980818068B6
:104AB0008083EA89FB8980818F7D8083DF91CF911C
:104AC000FF90EF90DF90CF90BF9008951F920F92CC
:104AD0000FB60F9211242F938F939F93EF93FF9311
:104AE000E091AA05F091AB058081E091B005F091CD
:104AF000B10582FD12C090818091B3058F5F8F73E5
:104B00002091B405821751F0E091B305F0E0E6562C
:104B1000FA4F958F8093B30501C08081FF91EF918B
:104B20009F918F912F910F900FBE0F901F9018950E
:104B30001F920F920FB60F9211242F933F934F9312
:104B40005F936F937F938F939F93AF93BF93EF93F5
:104B5000FF938AE995E00E945C24FF91EF91BF9159
:104B6000AF919F918F917F916F915F914F913F9105
:104B70002F910F900FBE0F901F9018958AE995E026
:104B80000E94212421E0892B09F420E0822F08953E
:104B900010929D0510929C0588EE93E0A0E0B0E095
:104BA00080939E0590939F05A093A005B093A105C7
:104BB00088E791E090939B0580939A0585EC90E0BF
:104BC0009093A7058093A60584EC90E09093A905A7
:104BD0008093A80580EC90E09093AB058093AA05A4
:104BE00081EC90E09093AD058093AC0582EC90E071
:104BF0009093AF058093AE0586EC90E09093B1055D
:104C00008093B0051092B3051092B4051092B505CB
:104C10001092B605089508950E9431230E940B2634
:104C20000E940302CEE4D4E20E9418022097E1F32E
:104C30000E944E24F9CF0C94E42C0C947C2DCF923E
:104C4000DF92EF92FF920F931F93CF93DF936C014C
:104C50007A01EB01E60EF71E00E010E0CE15DF054D
:104C600061F06991D601ED91FC910190F081E02D08
:104C7000C6010995080F191FF1CFC801DF91CF9127
:104C80001F910F91FF90EF90DF90CF9008956115E5
:104C9000710581F0DB010D900020E9F7AD01415075
:104CA0005109461B570BDC01ED91FC910280F38109
:104CB000E02D099480E090E00895EF92FF920F9329
:104CC0001F93CF93DF938C01FB01C0E0D0E0649190
:104CD0007F018FEFE81AF80A662361F0D801ED91A1
:104CE000FC910190F081E02DC8010995C80FD91FF2
:104CF000F701EDCFCE01DF91CF911F910F91FF9082
:104D0000EF900895DC01ED91FC91DB0114964D913B
:104D10005C9115976D917C910280F381E02D09944F
:104D2000DC01ED91FC910190F081E02D099464E8A3
:104D300071E00C9447260F931F93CF93DF93EC0100
:104D40000E945D268C01CE010E949726800F911F44
:104D5000DF91CF911F910F9108950F931F93CF93E0
:104D6000DF93EC010E9482268C01CE010E949726DF
:104D7000800F911FDF91CF911F910F9108958F9216
:104D80009F92AF92BF92CF92DF92EF92FF920F93DA
:104D90001F93CF93DF93CDB7DEB7A1970FB6F894EB
:104DA000DEBF0FBECDBF7C01C42EE52FCB01D22EBE
:104DB00019A221E02D1510F02AE0D22E8E010F5DF0
:104DC0001F4F8D2C912CA12CB12C6C2D7E2FA50169
:104DD00094010E94812C8C2DD29E801911240150A7
:104DE00011098A3014F4805D01C0895CF801808368
:104DF000211531054105510521F0C22EE32FCA01CD
:104E0000E4CFB801C7010E944726A1960FB6F894D7
:104E1000DEBF0FBECDBFDF91CF911F910F91FF90ED
:104E2000EF90DF90CF90BF90AF909F908F900895BC
:104E3000CF92DF92EF92FF920F931F93CF93DF9366
:104E4000EC016A017B012115310579F4E881F981D2
:104E50000190F081E02D642FDF91CF911F910F9190
:104E6000FF90EF90DF90CF9009942A303105E9F45C
:104E700077FF1AC06DE20E9490268C0144275527C7
:104E8000BA014C195D096E097F092AE0CE010E9422
:104E9000BF26800F911FDF91CF911F910F91FF903F
:104EA000EF90DF90CF9008952AE0B701A601CE01E0
:104EB000DF91CF911F910F91FF90EF90DF90CF90F6
:104EC0000C94BF264F925F926F927F928F929F9227
:104ED000AF92BF92CF92DF92EF92FF920F931F9308
:104EE000CF93DF93EC016A017B01B22E9A01AB01F3
:104EF000C701B6010E947D2C882319F067E871E094
:104F000027C026013701E89477F82FEF3FEF4FE7EE
:104F10005FE7C301B2010E947D2C81110DC02FEF0C
:104F20003FEF4FE75FE7C301B2010E94C72A18169F
:104F30001CF46BE871E00CC02FEF3FEF4FE75FE42C
:104F4000C701B6010E94162C1816ACF46FE871E088
:104F5000CE01DF91CF911F910F91FF90EF90DF90E5
:104F6000CF90BF90AF909F908F907F906F905F9009
:104F70004F900C9447262FEF3FEF4FE75FECC701B0
:104F8000B6010E94C72A87FDE1CF20E030E0A901E9
:104F9000C701B6010E94C72A87FF0AC06DE2CE0191
:104FA0000E9490268C01F7FAF094F7F8F09402C072
:104FB00000E010E0A12C60E070E080E09FE3AB1423
:104FC00041F020E030E040E251E40E94CB2AA3947B
:104FD000F6CF9B01AC01C701B6010E94632A6B01A9
:104FE0007C010E94382B2B013C010E94642B9B0109
:104FF000AC01C701B6010E94622A6B017C012AE064
:10500000B301A201CE010E94BF26080F191FBB20C9
:1050100039F063E971E0CE010E944726080F191F9D
:105020007B2C772041F120E030E040E251E4C701E1
:10503000B6010E941A2C6B017C010E94332B4B019C
:10504000AA2497FCA094BA2C2AE030E0B501A40170
:10505000CE010E941827080F191FC501B4010E9434
:10506000662B9B01AC01C701B6010E94622A6B014D
:105070007C017A94D6CFC801DF91CF911F910F9117
:10508000FF90EF90DF90CF90BF90AF909F908F9068
:105090007F906F905F904F9008950F931F93CF93E1
:1050A000DF93EC010E9462278C01CE010E949726BB
:1050B000800F911FDF91CF911F910F910895FC01F7
:1050C000808191810C947C2DCF93DF93EC018881BA
:1050D0009981009711F00E947C2D198218821D82FF
:1050E0001C821B821A82DF91CF9108950F931F9328
:1050F000CF93DF93EC018B016F5F7F4F88819981A4
:105100000E940B2E009731F0998388831B830A83BA
:1051100081E001C080E0DF91CF911F910F91089550
:10512000CF93DF93EC0188819981892B29F08A81C3
:105130009B818617970760F4CE010E94762888230A
:1051400041F08C819D81892B19F4E881F9811082CD
:1051500081E0DF91CF910895EF92FF920F931F931B
:10516000CF93DF93EC017B018A01BA010E94902862
:10517000811104C0CE010E94642807C01D830C83E6
:10518000B701888199810E94122FCE01DF91CF91C2
:105190001F910F91FF90EF900895FC0111821082F2
:1051A00013821282158214826115710559F0FB0178
:1051B00001900020E9F7AF0141505109461B570B00
:1051C0000C94AC280895EF92FF920F931F93CF9306
:1051D000DF93EC017B018A01BA010E9490288111C2
:1051E00004C0CE010E94642807C01D830C83B70150
:1051F000888199810E94E12ECE01DF91CF911F918C
:105200000F91FF90EF900895CF93DF93EC01FB0196
:105210008617970761F0608171816115710529F02A
:10522000448155810E94AC2802C00E946428CE01AE
:10523000DF91CF910895FC011182108213821282B6
:10524000158214820C940429CF93DF93EC0161152D
:10525000710561F0FB0101900020E9F7AF014150B9
:105260005109461B570B0E94AC2802C00E946428BB
:10527000CE01DF91CF9108950F931F93CF93DF93CA
:10528000CDB7DEB729970FB6F894DEBF0FBECDBFFE
:105290008C01862FF80111821082138212821582EE
:1052A000148250E0BE016F5F7F4F90E00E94282F74
:1052B000BE016F5F7F4FC8010E94242929960FB657
:1052C000F894DEBF0FBECDBFDF91CF911F910F913C
:1052D00008950F931F93CF93DF93CDB7DEB76197F8
:1052E0000FB6F894DEBF0FBECDBF8C01CB01F80125
:1052F00011821082138212821582148250E0BE0144
:105300006F5F7F4F0E94282FBE016F5F7F4FC801E4
:105310000E94242961960FB6F894DEBF0FBECDBF60
:10532000DF91CF911F910F910895EF92FF920F930C
:105330001F93CF93DF93CDB7DEB7A1970FB6F89445
:10534000DEBF0FBECDBF7C01CB01BA01F7011182D8
:105350001082138212821582148242E0420F8E0163
:105360000F5F1F4F0E94C32CBC01C7010E9424295C
:10537000A1960FB6F894DEBF0FBECDBFDF91CF91DF
:105380001F910F91FF90EF9008950F931F93CF936C
:10539000DF9300D0CDB7DEB78C016115710561F0E8
:1053A000CB0169837A830E94E82EAC0169817A81FE
:1053B000C8010E94E32802C00E946428C8010F901F
:1053C0000F90DF91CF911F910F910895FC011182F1
:1053D000108213821282158214820C94C529EF92D6
:1053E000FF920F931F93CF93DF93EC017B010C810E
:1053F0001D816115710511F480E016C0411551053C
:1054000091F0040F151FB8010E9490288823A1F382
:10541000288139818C819D81B701820F931F0E9461
:10542000122F1D830C8381E0DF91CF911F910F918B
:10543000FF90EF900895FB01448155816081718157
:105440000C94EF296115710559F0FB0101900020C2
:10545000E9F7AF0141505109461B570B0C94EF2956
:1054600080E00895CF93DF9300D0CDB7DEB7698396
:105470001A8241E050E0BE016F5F7F4F0E94EF292A
:105480000F900F90DF91CF910895FC018481958159
:105490006817790720F480819181009729F4109290
:1054A000370687E396E00895860F971F0895FC015D
:1054B00080819181009711F00C94D52E60E070E00E
:1054C000CB0108955058BB27AA270ED075C166D1CD
:1054D00030F06BD120F031F49F3F11F41EF45BC12A
:1054E0000EF4E095E7FB51C1E92F77D180F3BA17AD
:1054F000620773078407950718F071F49EF58FC152
:105500000EF4E0950B2EBA2FA02D0B01B9019001DE
:105510000C01CA01A0011124FF27591B99F0593F22
:1055200050F4503E68F11A16F040A22F232F342F6A
:105530004427585FF3CF469537952795A795F040B8
:105540005395C9F77EF41F16BA0B620B730B840BCD
:10555000BAF09150A1F0FF0FBB1F661F771F881F85
:10556000C2F70EC0BA0F621F731F841F48F48795DD
:1055700077956795B795F7959E3F08F0B3CF9395CC
:10558000880F08F09927EE0F979587950895D9D041
:1055900008F481E008950CD00FC107D140F0FED08F
:1055A00030F021F45F3F19F0F0C0511139C1F3C060
:1055B00014D198F39923C9F35523B1F3951B550BD7
:1055C000BB27AA2762177307840738F09F5F5F4FD6
:1055D000220F331F441FAA1FA9F333D00E2E3AF017
:1055E000E0E830D091505040E695001CCAF729D031
:1055F000FE2F27D0660F771F881FBB1F2617370780
:105600004807AB07B0E809F0BB0B802DBF01FF27AF
:1056100093585F4F2AF09E3F510568F0B6C000C115
:105620005F3FECF3983EDCF3869577956795B795E9
:10563000F7959F5FC9F7880F911D9695879597F904
:105640000895E1E0660F771F881FBB1F621773077D
:105650008407BA0720F0621B730B840BBA0BEE1F92
:1056600088F7E095089504D06894B111D9C00895E1
:10567000BCD088F09F5790F0B92F9927B751A0F070
:10568000D1F0660F771F881F991F1AF0BA95C9F7D6
:1056900012C0B13081F0C3D0B1E00895C0C0672F0F
:1056A000782F8827B85F39F0B93FCCF38695779586
:1056B0006795B395D9F73EF490958095709561956F
:1056C0007F4F8F4F9F4F0895E89409C097FB3EF49A
:1056D00090958095709561957F4F8F4F9F4F99233F
:1056E000A9F0F92F96E9BB279395F69587957795BD
:1056F0006795B795F111F8CFFAF4BB0F11F460FF7D
:105700001BC06F5F7F4F8F4F9F4F16C0882311F0D4
:1057100096E911C0772321F09EE8872F762F05C0E8
:10572000662371F096E8862F70E060E02AF09A9583
:10573000660F771F881FDAF7880F9695879597F978
:105740000895990F0008550FAA0BE0E8FEEF161612
:105750001706E807F907C0F012161306E407F50765
:1057600098F0621B730B840B950B39F40A2661F0D9
:10577000232B242B252B21F408950A2609F4A1407C
:10578000A6958FEF811D811D089597F99F6780E889
:1057900070E060E008959FEF80EC089500240A9483
:1057A0001616170618060906089500240A941216FC
:1057B0001306140605060895092E0394000C11F42F
:1057C000882352F0BB0F40F4BF2B11F460FF04C0DC
:1057D0006F5F7F4F8F4F9F4F089557FD9058440F35
:1057E000551F59F05F3F71F04795880F97FB991F40
:1057F00061F09F3F79F087950895121613061406FD
:10580000551FF2CF4695F1DF08C016161706180689
:10581000991FF1CF86957105610508940895E89464
:10582000BB2766277727CB0197F908958ADF08F40D
:105830008FEF08950BD0C0CFB1DF28F0B6DF18F09E
:10584000952309F0A2CFA7CF1124EACFC6DFA0F39A
:10585000959FD1F3950F50E0551F629FF001729F05
:10586000BB27F00DB11D639FAA27F00DB11DAA1F24
:10587000649F6627B00DA11D661F829F2227B00D71
:10588000A11D621F739FB00DA11D621F839FA00DFC
:10589000611D221F749F3327A00D611D231F849F4C
:1058A000600D211D822F762F6A2F11249F575040A3
:1058B0008AF0E1F088234AF0EE0FFF1FBB1F661F3E
:1058C000771F881F91505040A9F79E3F510570F0F7
:1058D0005CCFA6CF5F3FECF3983EDCF386957795DF
:1058E0006795B795F795E7959F5FC1F7FE2B880FF2
:1058F000911D9695879597F9089523DF880B990B4D
:105900000895A1E21A2EAA1BBB1BFD010DC0AA1F00
:10591000BB1FEE1FFF1FA217B307E407F50720F018
:10592000A21BB30BE40BF50B661F771F881F991F93
:105930001A9469F760957095809590959B01AC01DC
:10594000BD01CF0108950E94B42CA59F900DB49F76
:10595000900DA49F800D911D11240895EE0FFF1F3F
:105960000590F491E02D0994A29FB001B39FC0016E
:10597000A39F700D811D1124911DB29F700D811D7B
:105980001124911D0895EF920F931F93CF93DF93EE
:10599000E80147FF02C034E101C034E0E42FFF27F3
:1059A000E7FDF095F7FF03C0F195E195F109E32ECE
:1059B000022F2E2FAE010E944D2FCE01DF91CF91ED
:1059C0001F910F91EF900895CF93DF93823091054F
:1059D00010F482E090E0E0913A06F0913B0620E07E
:1059E00030E0A0E0B0E0309739F1408151814817B4
:1059F0005907B8F04817590771F4828193811097BD
:105A000029F013969C938E9312972CC090933B068B
:105A100080933A0627C02115310531F0421753070C
:105A200018F0A901DB0101C0EF019A01BD01DF01FE
:105A30000280F381E02DD7CF21153105F9F0281B25
:105A4000390B2430310580F48A819B816115710501
:105A500021F0FB019383828304C090933B068093E3
:105A60003A06FE01329644C0FE01E20FF31F819315
:105A7000919322503109398328833AC02091380606
:105A800030913906232B41F420910201309103011A
:105A9000309339062093380620910001309101019E
:105AA0002115310541F42DB73EB7409104015091C5
:105AB0000501241B350BE0913806F0913906E217F9
:105AC000F307A0F42E1B3F0B2817390778F0AC0121
:105AD0004E5F5F4F2417350748F04E0F5F1F5093FE
